{
  "address": "0x83D9dA923743f2FD6F77C7f3560ba95E63b8df73",
  "abi": [
    {
      "inputs": [
        {
          "internalType": "address",
          "name": "plonkVerifier_",
          "type": "address"
        }
      ],
      "stateMutability": "nonpayable",
      "type": "constructor"
    },
    {
      "anonymous": false,
      "inputs": [
        {
          "indexed": true,
          "internalType": "address",
          "name": "user",
          "type": "address"
        },
        {
          "indexed": true,
          "internalType": "bytes32",
          "name": "proofHash",
          "type": "bytes32"
        },
        {
          "indexed": false,
          "internalType": "bool",
          "name": "success",
          "type": "bool"
        },
        {
          "indexed": false,
          "internalType": "uint256",
          "name": "timestamp",
          "type": "uint256"
        }
      ],
      "name": "ProofVerification",
      "type": "event"
    },
    {
      "inputs": [
        {
          "internalType": "bytes",
          "name": "proof",
          "type": "bytes"
        },
        {
          "internalType": "uint256[]",
          "name": "pubSignals",
          "type": "uint256[]"
        }
      ],
      "name": "verifyProof",
      "outputs": [],
      "stateMutability": "nonpayable",
      "type": "function"
    }
  ],
  "transactionHash": "0xcc65304d63f408d3141d25379d40e14e2c76f1650fdc48c87df4d27617d02958",
  "args": [
    "0xB2A793C29Fad48A4fEFe56090314Ee1c4ED761Ea"
  ],
  "numDeployments": 1,
  "solcInputHash": "e2a0f08e17523b53dcb3d67c19f86277",
  "bytecode": "0x608060405234801561001057600080fd5b5060405161078d38038061078d833981810160405281019061003291906100db565b806000806101000a81548173ffffffffffffffffffffffffffffffffffffffff021916908373ffffffffffffffffffffffffffffffffffffffff16021790555050610108565b600080fd5b600073ffffffffffffffffffffffffffffffffffffffff82169050919050565b60006100a88261007d565b9050919050565b6100b88161009d565b81146100c357600080fd5b50565b6000815190506100d5816100af565b92915050565b6000602082840312156100f1576100f0610078565b5b60006100ff848285016100c6565b91505092915050565b610676806101176000396000f3fe608060405234801561001057600080fd5b506004361061002b5760003560e01c80631e8e1e1314610030575b600080fd5b61004a600480360381019061004591906103a8565b61004c565b005b60008060009054906101000a900473ffffffffffffffffffffffffffffffffffffffff1673ffffffffffffffffffffffffffffffffffffffff16631e8e1e1384846040518363ffffffff1660e01b81526004016100aa92919061055d565b602060405180830381865afa1580156100c7573d6000803e3d6000fd5b505050506040513d601f19601f820116820180604052508101906100eb91906105cc565b9050600083805190602001209050803373ffffffffffffffffffffffffffffffffffffffff167fc4e4410fbc784cf7dac1bec411476ad70bace78f9e8f781cbb515982a33b82f08442604051610142929190610617565b60405180910390a350505050565b6000604051905090565b600080fd5b600080fd5b600080fd5b600080fd5b6000601f19601f8301169050919050565b7f4e487b7100000000000000000000000000000000000000000000000000000000600052604160045260246000fd5b6101b78261016e565b810181811067ffffffffffffffff821117156101d6576101d561017f565b5b80604052505050565b60006101e9610150565b90506101f582826101ae565b919050565b600067ffffffffffffffff8211156102155761021461017f565b5b61021e8261016e565b9050602081019050919050565b82818337600083830152505050565b600061024d610248846101fa565b6101df565b90508281526020810184848401111561026957610268610169565b5b61027484828561022b565b509392505050565b600082601f83011261029157610290610164565b5b81356102a184826020860161023a565b91505092915050565b600067ffffffffffffffff8211156102c5576102c461017f565b5b602082029050602081019050919050565b600080fd5b6000819050919050565b6102ee816102db565b81146102f957600080fd5b50565b60008135905061030b816102e5565b92915050565b600061032461031f846102aa565b6101df565b90508083825260208201905060208402830185811115610347576103466102d6565b5b835b81811015610370578061035c88826102fc565b845260208401935050602081019050610349565b5050509392505050565b600082601f83011261038f5761038e610164565b5b813561039f848260208601610311565b91505092915050565b600080604083850312156103bf576103be61015a565b5b600083013567ffffffffffffffff8111156103dd576103dc61015f565b5b6103e98582860161027c565b925050602083013567ffffffffffffffff81111561040a5761040961015f565b5b6104168582860161037a565b9150509250929050565b600081519050919050565b600082825260208201905092915050565b60005b8381101561045a57808201518184015260208101905061043f565b60008484015250505050565b600061047182610420565b61047b818561042b565b935061048b81856020860161043c565b6104948161016e565b840191505092915050565b600081519050919050565b600082825260208201905092915050565b6000819050602082019050919050565b6104d4816102db565b82525050565b60006104e683836104cb565b60208301905092915050565b6000602082019050919050565b600061050a8261049f565b61051481856104aa565b935061051f836104bb565b8060005b8381101561055057815161053788826104da565b9750610542836104f2565b925050600181019050610523565b5085935050505092915050565b600060408201905081810360008301526105778185610466565b9050818103602083015261058b81846104ff565b90509392505050565b60008115159050919050565b6105a981610594565b81146105b457600080fd5b50565b6000815190506105c6816105a0565b92915050565b6000602082840312156105e2576105e161015a565b5b60006105f0848285016105b7565b91505092915050565b61060281610594565b82525050565b610611816102db565b82525050565b600060408201905061062c60008301856105f9565b6106396020830184610608565b939250505056fea2646970667358221220237d8907930a9c04a3fdd2824ac59b1d394670e241d853da446a244a86735ed964736f6c63430008110033",
  "devdoc": {
    "details": "Contract that uses a PLONK verifier in order to verify zero-knowledge proofs on the game of     Connect Four and emit events with the result of the verifications.",
    "events": {
      "ProofVerification(address,bytes32,bool,uint256)": {
        "details": "Emitted when a proof is verified"
      }
    },
    "kind": "dev",
    "methods": {
      "constructor": {
        "details": "Initializes the contract by setting an address to the PLONK verifier.",
        "params": {
          "plonkVerifier_": "address of the verifier"
        }
      },
      "verifyProof(bytes,uint256[])": {
        "details": "Verifies the validity of the proof `proof`.     Emits the event ProofVerification.",
        "params": {
          "proof": "the proof to be verified.",
          "pubSignals": "public signals."
        }
      }
    },
    "stateVariables": {
      "_plonkVerifier": {
        "details": "Address of the PLONK verifier"
      }
    },
    "version": 1
  },
  "userdoc": {
    "kind": "user",
    "methods": {},
    "version": 1
  },
  "storageLayout": {
    "storage": [
      {
        "astId": 17,
        "contract": "src/ZKConnectFour.sol:ZKConnectFour",
        "label": "_plonkVerifier",
        "offset": 0,
        "slot": "0",
        "type": "t_address"
      }
    ],
    "types": {
      "t_address": {
        "encoding": "inplace",
        "label": "address",
        "numberOfBytes": "20"
      }
    }
  }
}