{
  "address": "0xb09e2005299E48adCe523dF08Eb5242b709ef3C7",
  "abi": [
    {
      "inputs": [
        {
          "internalType": "address",
          "name": "plonkVerifier_",
          "type": "address"
        }
      ],
      "stateMutability": "nonpayable",
      "type": "constructor"
    },
    {
      "anonymous": false,
      "inputs": [
        {
          "indexed": true,
          "internalType": "address",
          "name": "user",
          "type": "address"
        },
        {
          "indexed": false,
          "internalType": "bytes32",
          "name": "proofHash",
          "type": "bytes32"
        },
        {
          "indexed": false,
          "internalType": "bool",
          "name": "success",
          "type": "bool"
        }
      ],
      "name": "ProofVerification",
      "type": "event"
    },
    {
      "inputs": [],
      "name": "_plonkVerifier",
      "outputs": [
        {
          "internalType": "address",
          "name": "",
          "type": "address"
        }
      ],
      "stateMutability": "view",
      "type": "function"
    },
    {
      "inputs": [
        {
          "internalType": "bytes",
          "name": "proof",
          "type": "bytes"
        },
        {
          "internalType": "uint256[]",
          "name": "pubSignals",
          "type": "uint256[]"
        }
      ],
      "name": "verifyProof",
      "outputs": [],
      "stateMutability": "nonpayable",
      "type": "function"
    }
  ],
  "transactionHash": "0x60acb3b492acc557563985041c1dcb5f844ffb347edb1d149c7e0d0359731267",
  "args": [
    "0x6dfd19Eda6bB82d4bd7C95f5E91f28bD28fA95BB"
  ],
  "numDeployments": 1,
  "solcInputHash": "522e89ceb3d33dea72e698d08c4a6884",
  "bytecode": "0x60a060405234801561001057600080fd5b50604051610844380380610844833981810160405281019061003291906100cf565b8073ffffffffffffffffffffffffffffffffffffffff1660808173ffffffffffffffffffffffffffffffffffffffff1681525050506100fc565b600080fd5b600073ffffffffffffffffffffffffffffffffffffffff82169050919050565b600061009c82610071565b9050919050565b6100ac81610091565b81146100b757600080fd5b50565b6000815190506100c9816100a3565b92915050565b6000602082840312156100e5576100e461006c565b5b60006100f3848285016100ba565b91505092915050565b60805161072761011d600039600081816079015261017901526107276000f3fe608060405234801561001057600080fd5b50600436106100365760003560e01c80631e8e1e131461003b578063c652c62e14610057575b600080fd5b610055600480360381019061005091906103f3565b610075565b005b61005f610177565b60405161006c91906104ac565b60405180910390f35b60007f000000000000000000000000000000000000000000000000000000000000000073ffffffffffffffffffffffffffffffffffffffff16631e8e1e1384846040518363ffffffff1660e01b81526004016100d2929190610604565b602060405180830381865afa1580156100ef573d6000803e3d6000fd5b505050506040513d601f19601f820116820180604052508101906101139190610673565b90506000838051906020012090503373ffffffffffffffffffffffffffffffffffffffff167f4e7a2947e45c7ac63eeadff7491f1b1c84c7ba9c3042150500dc95f767f5a3f082846040516101699291906106c8565b60405180910390a250505050565b7f000000000000000000000000000000000000000000000000000000000000000081565b6000604051905090565b600080fd5b600080fd5b600080fd5b600080fd5b6000601f19601f8301169050919050565b7f4e487b7100000000000000000000000000000000000000000000000000000000600052604160045260246000fd5b610202826101b9565b810181811067ffffffffffffffff82111715610221576102206101ca565b5b80604052505050565b600061023461019b565b905061024082826101f9565b919050565b600067ffffffffffffffff8211156102605761025f6101ca565b5b610269826101b9565b9050602081019050919050565b82818337600083830152505050565b600061029861029384610245565b61022a565b9050828152602081018484840111156102b4576102b36101b4565b5b6102bf848285610276565b509392505050565b600082601f8301126102dc576102db6101af565b5b81356102ec848260208601610285565b91505092915050565b600067ffffffffffffffff8211156103105761030f6101ca565b5b602082029050602081019050919050565b600080fd5b6000819050919050565b61033981610326565b811461034457600080fd5b50565b60008135905061035681610330565b92915050565b600061036f61036a846102f5565b61022a565b9050808382526020820190506020840283018581111561039257610391610321565b5b835b818110156103bb57806103a78882610347565b845260208401935050602081019050610394565b5050509392505050565b600082601f8301126103da576103d96101af565b5b81356103ea84826020860161035c565b91505092915050565b6000806040838503121561040a576104096101a5565b5b600083013567ffffffffffffffff811115610428576104276101aa565b5b610434858286016102c7565b925050602083013567ffffffffffffffff811115610455576104546101aa565b5b610461858286016103c5565b9150509250929050565b600073ffffffffffffffffffffffffffffffffffffffff82169050919050565b60006104968261046b565b9050919050565b6104a68161048b565b82525050565b60006020820190506104c1600083018461049d565b92915050565b600081519050919050565b600082825260208201905092915050565b60005b838110156105015780820151818401526020810190506104e6565b60008484015250505050565b6000610518826104c7565b61052281856104d2565b93506105328185602086016104e3565b61053b816101b9565b840191505092915050565b600081519050919050565b600082825260208201905092915050565b6000819050602082019050919050565b61057b81610326565b82525050565b600061058d8383610572565b60208301905092915050565b6000602082019050919050565b60006105b182610546565b6105bb8185610551565b93506105c683610562565b8060005b838110156105f75781516105de8882610581565b97506105e983610599565b9250506001810190506105ca565b5085935050505092915050565b6000604082019050818103600083015261061e818561050d565b9050818103602083015261063281846105a6565b90509392505050565b60008115159050919050565b6106508161063b565b811461065b57600080fd5b50565b60008151905061066d81610647565b92915050565b600060208284031215610689576106886101a5565b5b60006106978482850161065e565b91505092915050565b6000819050919050565b6106b3816106a0565b82525050565b6106c28161063b565b82525050565b60006040820190506106dd60008301856106aa565b6106ea60208301846106b9565b939250505056fea26469706673582212205bec2d10dcd42839c7111ec5cf34b0fbf644e54179acce49a69120c2df01f4a364736f6c63430008110033",
  "devdoc": {
    "details": "Contract that uses a PLONK verifier in order to verify zero-knowledge proofs on the game of     Connect Four and emit events with the result of the verifications.",
    "events": {
      "ProofVerification(address,bytes32,bool)": {
        "details": "Emitted when a proof is verified"
      }
    },
    "kind": "dev",
    "methods": {
      "constructor": {
        "details": "Initializes the contract by setting an address to the PLONK verifier.",
        "params": {
          "plonkVerifier_": "address of the verifier"
        }
      },
      "verifyProof(bytes,uint256[])": {
        "details": "Verifies the validity of the proof `proof`.     Emits the event ProofVerification.",
        "params": {
          "proof": "the proof to be verified.",
          "pubSignals": "public signals."
        }
      }
    },
    "stateVariables": {
      "_plonkVerifier": {
        "details": "Address of the PLONK verifier"
      }
    },
    "version": 1
  },
  "userdoc": {
    "kind": "user",
    "methods": {},
    "version": 1
  },
  "storageLayout": {
    "storage": [],
    "types": null
  }
}